:100000000C94CF0E0C94F70E0C94F70E0C94F70E84
:100010000C94F70E0C94F70E0C94F70E0C94F70E4C
:100020000C94F70E0C94F70E0C94F70E0C94F70E3C
:100030000C94F70E0C94F70E0C94E0140C94F70E3D
:100040000C94E31A0C94F70E0C9451170C942B1784
:100050000C94F70E0C94F70E0C94F70E0C94F70E0C
:100060000C942D1B0C94F70E0000000025002800B6
:100070002B000000000023002600290004040404D3
:100080000404040402020202020203030303030342
:10009000010204081020408001020408102001021F
:1000A00004081020000000080002010000030407FB
:1000B0000000000000000000BF000303040403056B
:1000C000050B10FFFC09FD09FE019403930B75203D
:1000D00005008C192108928719071A01220A45B6D2
:1000E0001912164928002317B77D59916024180961
:1000F0009D22C148E81409468291602404240DC65B
:100100007D5942D989C8E92614012513A78539C22A
:10011000502C94A218148684A158282802260F87F0
:10012000855933A95848194944A28900270742AF85
:10013000199600280CB47659129144A49B4826299C
:100140000DB4761932914CA48B4822022A0A55A686
:10015000592911CB44012B0B778D79E1B45B380D14
:10016000002C09437639124A08002D0616A51906F7
:100170002E06228719042F10C774B98A52A1542859
:10018000154A85522900300DA7855933891ADF2475
:100190006A23003109A6865922A27E32320CA68536
:1001A00039141149A8A6A301330FA685391491501B
:1001B000692A14922414003411A78599C2192D229A
:1001C0000A49449298E42824350FA6851987A0B0DF
:1001D00022122A92241400360FA68559149950220F
:1001E000999038492800370CA6851937A14CA84D9D
:1001F000A804380EA685391411938422E224A100A4
:10020000390DA6853914114F92A24C42023A077259
:10021000871964023B0A937639EA300925043C0DBC
:10022000788CB9B34539600E9803063D0847951997
:100230007784033E0E788D1973C01C30070867ABB6
:10024000003F0F96851915D14C289AC961421100BB
:100250004013978539245924348948324522922401
:100260003309004111998439E5A9442811C6624A2D
:100270002799840142139884192799442691494C5F
:1002800032894C223B4800430E9785599388884613
:10029000D52C125100441398841936919A44269112
:1002A0004964129944243101451398841987884C74
:1002B0002293488244495026911D0646129884197B
:1002C00087884C229348824449502CAD01471499A9
:1002D00084599490682294C8017280E82892C92CAD
:1002E000004813998419148A4C2413C94427994847
:1002F00026924918490996851926A13E194A13994B
:1003000084795639400E90034432914C2493D500A1
:100310004B1299841994919A44482D8A6422990A1F
:1003200069004C0D98841945B16E12994476184DA8
:1003300016998419B3894C34194D46928848121184
:10034000C9443209034E17998419238A4C34128DFB
:100350005422224944241A89262409004F0E9884E5
:1003600059349144C8A34424230150119884192777
:10037000994426914944A29A585A035112B8745983
:10038000349144C8A34424A38A22920900521199AB
:1003900084193725994826522B8A642AA401530DC3
:1003A0009785399451ADDA569A5000540D988419B6
:1003B000878984A226D695045515998419148A4CE8
:1003C0002413C94432914C2413C96425005613994F
:1003D0008419148A4C2413C9548412A1443A9E01EE
:1003E0005718998419148A4C24898824119124223D
:1003F0009A8C262399482601580F988419A3894876
:100400001B554A1369190D59149A8319248A5026C9
:10041000128AA474801C2287884D005A0E97851971
:1004200007194928152AD10E025B09B4761926FD51
:1004300089005C10C7751952B1542C154BC552B1C7
:1004400054005D09B4761924FDC9005E0945AE5912
:10045000B18964165F071974190701600723BE1973
:100460002201610E788439758058649149442B03C8
:100470006212A88419632DA3914426914964925174
:100480006502630F7884599488A848960364A20A89
:10049000006412A8849963A589D244269149641204
:1004A000D1CA00650F78845934914478A80344A3D5
:1004B0000A00660CA7857924A9CC26D5CD0267123F
:1004C000A86C3993D2442691496412D18A58A90460
:1004D0006815A9841973801C200748662335914C40
:1004E0002413C9240C690BA68559423984A8270313
:1004F0006A0AD56D79CA34FD66016B10A884196348
:100500004D1335225122134946036C09A68519441F
:10051000FDC9006D0C798419929244FF2F15056E68
:100520001079841993D9484D2413C9443209036FB3
:100530000E788459349144C82811C948007015A810
:100540006C1993D1482293C82432C948221989A52D
:1005500044007112A86C3993D2442691496412D197
:100560008A589500720B7785199345A9460B00733D
:100570000C7785398718B94C3B4400740C97853942
:1005800052A149AA9388027511798419A3914C2428
:1005900013C94432916836197610798419148A4C3B
:1005A0002453114AA4E3190077137A8319C38926C7
:1005B0008992442D22098A84221100780F788419A7
:1005C000A389484695D24492D1007913A96C19B3F6
:1005D000894C2453114AA4E3B11C20AD017A08765A
:1005E000851937BD1D7B0CB4765912911699489B1D
:1005F000007C07B277191F027D0DB476193291364F
:1006000089488B08007E09369D39A2434802A0051F
:10061000008C19A109927719A4C86100A20EA67DC9
:100620005942D989A824A1094500A30E97855924C8
:1006300015A9B026553A4400A40D678D19324945D5
:100640004693546402A5109A8419248A5026925223
:10065000CD62B3D804A609B2771987D16100A71477
:10066000B87C592559484A8C8966A251902A8A89B2
:100670004A00A80824C619215100A912898C79437F
:10068000994424A1C4283192444D3803AA0A75968E
:1006900039438945255AAB0B578D5912BD49641210
:1006A00001AC07379519E704AD0616A51906AE117A
:1006B000898C593515254A0A45444951939500AF0F
:1006C0000614C61904B00A44AE399290282201B12A
:1006D0000B778D79E1D82D1C871DB20A65A6399359
:1006E000904CA454B30B65A6399390E2483201B400
:1006F0000723BF391400B517A96C19A3914C241313
:10070000C9443291684499C80172801800B617B77D
:100710007D398748A648522422499A0423C148308B
:10072000128C840CB706229F1904B808436E392135
:100730001101B90964A73992911602BA0B7596395D
:1007400013C96C221917BB0C578D1912994426D165
:100750001300BC17A98439E269441892C544914832
:100760004518994522A2905502BD15A98439E26920
:10077000441892C544138B2C268A8962E202BE1962
:10078000AA8339E39030240C8A9224499388343226
:100790008C4464A14A5402BF0E96755942394C36B6
:1007A00012CA469202C014C9847972881C5C9E4A9F
:1007B0008412612CA674924918C113C984996239B4
:1007C00042792A114A84B198D2492661C214C98457
:1007D0007953891C5A9E4A8412612CA67492491836
:1007E000C315C984799260440E2E4F254289301674
:1007F000533AC9240CC414C98459A9A138B83C95EA
:100800000825C2584CE9249330C514C98479E250B4
:10081000586A9D4A8412612CA674924918C613998D
:100820008459B7516C4A8945481249A818124D0C91
:10083000C712D765599388A446D52C1211C3E2E09C
:100840000800C817C8847972801C7688C824328949
:10085000244894046512D96100C916C88499523994
:10086000F0109149641249902809CA24B2C300CA01
:1008700017C8847943891C7488C824328924489411
:10088000046512D96100CB17C8845989A138EC10CE
:100890009149641249902809CA24B2C300CC0CC6FD
:1008A00085395239C424D42703CD0BC68579EA1083
:1008B00093509F0CCE0CC685592389D824D4270386
:1008C000CF0CC68539A1EC0093509F0CD0129884B0
:1008D0001936919A446692C8243289486202D11B23
:1008E000C984799260440E1D5164A29168A41211CA
:1008F000492222D14834214900D212C88459728039
:100900001C4C1349843C4A44321200D311C88499C8
:10091000523998269208799488642400D412C884A5
:100920005943891C4A1349843C4A44321200D51366
:10093000C884599258440EA68924421E25221909BA
:1009400000D612C8845989A13894269208799488CF
:10095000642400D70D768D19C1918426A388860161
:10096000D816A884F98050494514214528214AA861
:10097000261149222400D918C9847972881C4AA1F9
:10098000C84432914C2413C94432914C5602DA17B0
:10099000C98499623998429189642299482692893A
:1009A000642299AC04DB18C9847953891C48A1C816
:1009B0004432914C2413C94432914C5602DC19C97B
:1009C0008479A168280EA4506422994826928964EB
:1009D000229948262B01DD18CA83B972801C8144F4
:1009E00011CA444291940E9043E410B10900DE1004
:1009F00098841954B14926914944A29A9408DF1267
:100A000098845934912E32919A442691442A1300A5
:100A1000E011A8845972801C5A078845169944B47D
:100A200032E111A884995239B40E108B2C328968A6
:100A30006500E211A8845943891C58078845169916
:100A400044B432E312A884599258440EAD03C42230
:100A50008B4C225A19E412A8845989A138B00E107F
:100A60008B2C3289686500E511A88479D2505458DE
:100A7000078845169944B432E6117984398B13619D
:100A80002C7218054512C90A00E714B864599488F5
:100A9000A848960364A2621C2007446700E812A8D5
:100AA000845972801C4C134984873A4034AA00E967
:100AB00011A884995239982692080F7580685401BC
:100AC000EA12A8847943891C48134984873A403440
:100AD000AA00EB12A8845989A138942692080F75B0
:100AE00080685401EC0BA68539523984A82703EDA0
:100AF0000AA68579EA10A29E0CEE0CA685392389F8
:100B00001C40D49301EF0BA68539A1EC00A29E0CEA
:100B1000F012A8841913E14C242CA90819252219D4
:100B20000900F114A984799260440E9DCC466A2292
:100B3000994826924918F211A8845972801C4C13C6
:100B400049848C12918C04F311A884995239982607
:100B50009208192522190900F411A8847943891CE7
:100B6000481349848C12918C04F512A88459925828
:100B7000440EA68924424689484602F612A88459A2
:100B800089A13894269208192522190900F70D78B1
:100B90008C796239F010078A6500F81178845994CD
:100BA000884822B2484C1291244202F915A984794E
:100BB00072881C3A1AC94432914C241389669301F5
:100BC000FA14A98499623978349289642299482662
:100BD00012CD2603FB15A9847953891C381AC94400
:100BE00032914C241389669301FC15A98459A9A15B
:100BF0003874349289642299482612CD2603FD1652
:100C0000D96CB9623974369189642A4289743C96E8
:100C100003A43500FE16C86C196395D1482293C809
:100C20002432C948221989A54400FF18D96C79A13A
:100C300068280E9C4D6422998A50221D8FE5006918
:100C40000D0000000000BF000303030403040408B8
:100C50000BFFFE06FE07FF013D0291086220050022
:100C6000A6032107B2A2E3101222079BAE23A21211
:100C70002310459E272912A924452295A448040043
:100C8000240C4D9E2B662AD128B61000250C3DA2BF
:100C9000631489D46295A401260AB6A16B24955DDC
:100CA0004405270619AF63002809C39E2B12D129DA
:100CB00016290AC39E2316926849022A0924AE2BDC
:100CC000429184022B0A2DA62B182A0543002C07DB
:100CD0009B9A4792042D060DAEA3002E068AA243CE
:100CE000002F0CC49E2F29168A85623100300A3DE0
:100CF000A26722E145320131093EA24B44D4C9002A
:100D000032093DA267A226D272330C3DA267A22609
:100D10001952241300340C3EA24F368A68B10925BB
:100D200000350A3DA2E346511B5900360D3DA2672E
:100D300022A1512414C90400370C3DA2E32213C997
:100D400044321100380D3DA26722A14826128A6460
:100D500002390D3DA26722A1486814C904003A0671
:100D6000A2A243283B09339A470E9024013C082C49
:100D7000A64BA2A6003D061CAA83483E08ACA6438B
:100D8000A6A2043F0A35A26712D20E1101400D46F9
:100D90009E67248A8424F9A93A02410CB7A18738B6
:100DA0008CC44A12C902420CB6A1A3249190242AF1
:100DB0001700430A35A2C74253914C00440AB6A11A
:100DC000A324D1970B00450BB6A1C3222409258784
:100DD00000460BB6A1C3222409652400470A35A2A8
:100DE0006722A15D2404480DB7A16332512A49440A
:100DF00012C902490834A28322D2424A0AB6A18B00
:100E00002694E834024B0DB7A1632292C48634893C
:100E100084224C09B6A18326D472084D0BB6A14397
:100E200016D1A59232494E0FB7A163B2129A84240B
:100E300022896414014F0A35A26722E122990050E9
:100E40000BB6A1A324D142929100510A3D9E672284
:100E5000E122190A520DB7A1A3261149443489840D
:100E600022530935A2C754235900540BB6A1E322DB
:100E70000909D52800550EB7A16332519288242262
:100E8000896C04560CB7A16332518B045763005729
:100E90000FB7A1431291648A24D586911000580C93
:100EA00036A24324A10965149100590DB7A163240A
:100EB000118988522105005A0835A2E322D2725BBB
:100EC00008C39EA3A297015C0C449E23168C056365
:100ED000C158005D08C39E63A297025E071DB22B36
:100EE00036515F060E9AC300600612BB2314610AD6
:100EF0002EA267241151540C620BBEA16328244911
:100F000074B900630B2DA26722A149241300640A5F
:100F10003EA26B28A2E8530165092DA26722390879
:100F200009660A3DA26B22AAC8940A670B3E9A473B
:100F300042D113514202680ABEA163282449F40336
:100F400069093EA24B0E216A326A094C9A4B48D27B
:100F5000A9026B0CBFA163AA22A20D6992016C08C1
:100F60003EA283A827036D08AEA1A354C93F6E0912
:100F7000AEA1432292E8076F0A2DA2672261914C2D
:100F800000700BBE99A324D10B494602710A3E9A08
:100F90004742D1135146720B2EA243B21211CA48D6
:100FA00000730A2EA28732241E2200740C3EA24730
:100FB000282B0955441300750DAFA1632292882494
:100FC0002289AC00760AAEA163A269360C01770DC6
:100FD000AFA143129164AAD1222100780B2EA26303
:100FE00022A1C9289201790EBF9963325192C82279
:100FF000C1A16C087A082DA2C32252397B0BC49E72
:101000004B2292C8446A027C06399FE3007D0C445F
:101010009E43269249442A22007E0715AE470B00C4
:10102000A00500A603A107BA9A437418A20C459E16
:101030002B18330D49C11000A30D3EA26B2489C5A6
:101040006A41910500A40C2DA62316194542935818
:1010500000A50D3EA2432409454C22938C02A6060E
:10106000499B8342A70E459E87128A8872928422EA
:101070001400A8068BB62312A90F3EA24B168A4471
:1010800054421249524C04AA08ACAA63380912AB64
:101090000AAFA14BA237894C22AC071DAAA3980026
:1010A000AD060DAEA300AE0E3FA26B961299284975
:1010B000728B8D00AF060CB68300B0091CB24712CC
:1010C0008A4800B10A35A22B182AC50105B207A328
:1010D000AE679232B308A3AE63129B00B40612B798
:1010E0004702B50FBF9963229288242289C8128EC5
:1010F00002B610469EC79227492C128BC422218922
:1011000000B7068AAE4300B8079B9A273601B90795
:10111000A3AE439432BA09ACAA47128A4809BB0B62
:10112000AFA1432293C8247A02BC0FBFA1431C0B7A
:101130002551621151841A01BD0EBFA1431C0B251C
:101140005144916CD101BE0FBFA1631A4B0949D222
:1011500022A2083502BF0C3D9A4B0E9189942213AE
:1011600000C00FCFA12B0E880389C348AC24912C5B
:10117000C10ECFA12F1A8712879158492259C20F49
:10118000CFA12F1A89C388C348AC24912CC30FCF99
:10119000A14B124A8711879158492259C40EC7A101
:1011A0002B128711879158492259C50FCFA14B188F
:1011B0000A0A89C348AC24912CC60DB7A1C734894B
:1011C000289124920901C70C459AC74253910C43B8
:1011D0002200C80ECEA12B1C8758441192507208D1
:1011E000C90ECEA12F180759441192507208CA0F88
:1011F000CEA12B1889432CA20849283904CB0EC64E
:10120000A1271D6211454842C92100CC0A4CA227E2
:1012100018A588B410CD094CA22B9922D242CE0B2E
:101220004CA227148952445A08CF0A44A22312A57B
:1012300088B410D00DB6A1A324B1444411C905004F
:10124000D113CFA14B124A074D26A2D02454924865
:10125000261200D20D4DA2271A874C245C241300BD
:10126000D30D4DA22B16074D245C241300D40E4D34
:10127000A22B16890326122E920900D50D4DA247E6
:10128000290E9848B8482600D60C45A2271D309153
:1012900070914C00D70A2DA62316494B490BD80E46
:1012A000B7A16B12512A494412496404D912CFA143
:1012B0002B0E88C326132589482292C84600DA11CE
:1012C000CFA1331A874D264A12914424918D00DB19
:1012D00012CFA12F1A898326132589482292C84646
:1012E00000DC11C7A12B12074D264A12914424910C
:1012F0008D00DD0ECFA1371D3492884444A99002A1
:10130000DE0BB6A163489268A1CC00DF0DB7A16BDC
:101310002689955444150900E00D46A22B1C078D23
:1013200042228A8A01E10D46A22F18878D42228A25
:101330008A01E20E46A22B18898346211145C50079
:10134000E30E46A2479214078D42228A8A01E40CDA
:101350003EA2271D340A89282A06E50E4EA24B1606
:101360008AC941A39088A262E60CAEA1473291449B
:101370002C22C900E70D3D9A6722A14924C3900899
:1013800000E80C45A2271A874C24072101E90C45E7
:10139000A22B16074D24072101EA0D45A22B168921
:1013A000032692839000EB0B3DA2271D30911C84F5
:1013B00004EC0A46A22B1C070D3519ED0A46A22F94
:1013C00018870D3519EE0B46A22B188983869A0CC7
:1013D000EF093EA2271D34D464F00E45A243121239
:1013E00045441616C90400F111C7A14B124A07491A
:1013F0006412914424114906F20D45A2271A874C24
:10140000242C920900F30D45A22B16074D242C9293
:101410000900F40E45A22B168903261216C90400F2
:10142000F50D45A247290E984858241300F60C3DA7
:10143000A2271D3091B0482600F70A2DA62B0EA832
:10144000034200F80D3D9E3332911C249249100056
:10145000F910C7A12B0E88C3262289482292C80AF8
:10146000FA0FC7A12F1A074E44129144249115FB7D
:1014700010C7A12F1A8983262289482292C80AFC04
:101480000FBFA12B12074D44129144249115FD1159
:10149000D799331A874D264A1259243894D100FE21
:1014A0000DCE9963282449F442929100FF11CF99FF
:1014B0002B12074D264A1259243894D100000000FF
:1014C00000BF00030304040204050B0DFFFE08FE29
:1014D00008FE016402CF08B7200500E60421088257
:1014E00023C5411213220833774544250023107782
:1014F000A1552418899922215324188901240FA564
:101500009E556C92425B8A485266210025128722C2
:101510008E4C220949A2E168441489CC240026108B
:101520008722CE4C2292C866129344329A0827062C
:1015300031F7C400280BA31A554412D129240A29D3
:101540000DA31A4548149268894842002A07333689
:101550004524072B0A56A6955064128A002C074290
:10156000DA0445022D06146E05012E0622E204015E
:101570002F0C84225D522C140BC56200300B85A207
:10158000CD44C217C90400310783A34D451F320A59
:1015900085A2CD444D495B01330D85A2CD444D2438
:1015A0009451241300340E86A26550368A484212A4
:1015B0009B5002350C85A2C54D461C5124130036A4
:1015C0000D85A2CD4442A34858241300370B85A2B1
:1015D000454D4926922901380E85A2CD4442914CB1
:1015E000242C920900390D85A2CD44C222A1512498
:1015F00013003A0762E20491003B0882DA04912268
:10160000013C08546695444D013D0735AA45B50097
:101610003E095466854C4509003F0C85A2CD444DDA
:10162000A42687880040179ADE5E4D1A0A4922A236
:1016300024492C2409A58424B238AC06410F872202
:10164000D6702611494412C9414613420C86E24520
:101650004544BA88982E00430E87221649449C2A96
:101660004644220A00440B86E20549A2C48B840446
:10167000450985A2C54D76532B460A85A2C54D4620
:10168000916903470E87221649449C8A6A12916821
:1016900012480A86E28588E930E224490782E2C4DA
:1016A00083004A0A85A29DDE289209004B0F87E23B
:1016B0008548A2441BD224221599004C0885A28596
:1016C0004CDF0A4D1089A286B466BB5852281352CB
:1016D0008814124E0E872286AC54A2442811529BC5
:1016E000004F0C8722D64CA2C64DA23602500B8664
:1016F000E24545C474112A02510D971ED64CA2C66C
:1017000025A28D0E08520B86E24545C4741131099D
:10171000530C86E20D45546423492800540986E29F
:101720008549A84F00550A86E285889F24140056F3
:101730000F8722868C2651928824B2E134065713F3
:101740008AE28648441291543449940E31915024CF
:1017500002580E8722868C26511BCE246A340159EA
:101760000D88628690281169A38AD5005A0A86E2FC
:101770008551A63653345B08A31A4545BF0C5C0C53
:101780008422452C180BC682B1005D08A31AC544FB
:10179000BF145E0844728DA4240A5F06169A850160
:1017A000600722FE442800610B66A2CD2824A2E82F
:1017B0002411620B85A2854C469170B100630964C7
:1017C000624D65A41219640A85A29D8A858B8400E6
:1017D000650C65A2CD44729049241300660A8521E8
:1017E000D5444492E904670C859A8D64C2454293BE
:1017F0004C00680A85A2854C4691F022690782E276
:1018000084E8506A0AA3D98C50A2170A006B0D868F
:10181000A2855045429A91244A026C0782E2C48311
:10182000006D0E68624644178A8422A148280A6E19
:101830000965A245448517016F0A65A2CD44C245DA
:101840003201700B859A4544858B452603710A85C4
:101850009A8D64C24542537209642245A422D2047F
:10186000730B65A2CD446548914C00740A84218DA8
:101870004842116913750965A28584179500760B96
:1018800065A285844592340B017710672286244235
:101890008950229A2422890400780C66E285484205
:1018A0009351442401790C859A85848B842413896F
:1018B000007A0965A2454DA4AD007B0BA45A95445E
:1018C000A4221369137C07A1DBC461007D0CA45A18
:1018D000854CA426116911017E0725AE8D1600A046
:1018E0000500E604A108821B852C7210A20F859EBC
:1018F0005D68229984222189641403A30D85A2D5F1
:1019000044121191642A1301A40B66A6453042CA01
:1019100089120CA50E86E245503892842226914900
:1019200004A607A1DB048900A70FA59ACD44449B18
:1019300084489119493201A80713FE442400A912D2
:1019400088A3162D1809A9842292A0689218230151
:10195000AA08536FC548121BAB0936E68D84229244
:1019600008AC0735EB453101AD06146E0501AE1428
:1019700088A3162D18895024A18864240945126370
:101980002400AF0613FEC400B0073336CD0A00B101
:101990000B76A295506412CA2106B20843F2CC24F9
:1019A0006500B30843F2C4243601B40722FE8C0458
:1019B00000B50A859A858497CA4C06B616A69ACDB4
:1019C000211299442621492C128BC422B1482C1291
:1019D00001B70612EE8400B80622DACC00B907423D
:1019E000F2CC2401BA07536F058536BB0A36E6856B
:1019F0004424A14800BC1388624E2C244B0A86C2A2
:101A0000A1584816A1042300BD1187624E2C220B59
:101A1000A585A211512429D300BE138862C6289639
:101A2000188989C2A1584816A1042300BF0D859AC0
:101A3000951C2213A949241300C013B722561C1069
:101A4000870E6712914424911C643401C112B7229D
:101A500066340E1DCE242289482239C86802C2127B
:101A6000B7225E341207AE49441291447290D104F9
:101A7000C313B7225E24168903D72422894822394A
:101A8000C86802C411A72256240E5C9388242289B8
:101A9000E420A309C513B7225E34128D0E6712919C
:101AA0004424911C643401C60F89A2D68928114AA6
:101AB0002A6A36914C54C70FA71A1649449C2A46E5
:101AC0004422625406C80CB5A24D340EB8C96E6AE1
:101AD00005C90BB5A25D3AE026BBA915CA0CB5A293
:101AE000552C12BEC96E6A05CB0AA5A24DF24D76E1
:101AF000532BCC09B2E24428743808CD08B2E28CEA
:101B0000EC7010CE08B3E14C46897ECF0AA4E144C4
:101B1000282AD22F00D01087E10D4D22125994248B
:101B20002289120900D112B7225E2416898364A586
:101B30001225428990DA04D210B7225E1C1007CE1B
:101B4000246ADC246A2300D30FB72266340E9D4931
:101B5000D4B849D44600D410B7225E341207CE243C
:101B60006ADC246A2300D511B7225E241689036734
:101B700012356E12B51100D60FA72256240E9C49BD
:101B8000D4B849D44600D70B56A685484293514451
:101B900002D8118722D624A2A912A1444A1295C8BC
:101BA0000800D90CB6E255380E11F1938402DA0C14
:101BB000B6E2653A44C44F120A00DB0DB6E2553076
:101BC000128788F8494201DC0CA6E24D280E10F17C
:101BD000938402DD10B8626E380E141225226D5403
:101BE000B11A00DE0C86E285B02262BA088500DFF9
:101BF0000C85A2CD44B412116D8900E00E96A25559
:101C0000380E1A8544149D2402E10E96A25D300E12
:101C10001B8544149D2402E20F96A2553012078DB5
:101C200042228A4E1201E31096A25524148983465B
:101C3000211145278900E40D86A24D3A68141251FE
:101C4000749208E50F96A25530120C8E42228A4EED
:101C50001201E60F68628E2524911C2432899609B0
:101C600000E70C845A4D65A41219852400E80E95EE
:101C7000A24D340E99480E32896402E90E95A25D98
:101C80003A642239C824920900EA0F95A2552C1211
:101C9000074C240799443201EB0E85A24D3A60228D
:101CA00039C824920900EC0892E244287428ED0710
:101CB00092E28CEC50EE0993E24C36895E00EF0A1A
:101CC00083E2442426D10B00F00E95A24D922812F7
:101CD0009B48B8482600F10B95A24DEE80880A2F4C
:101CE00002F20D95A24D340E9948B8482600F30C27
:101CF00095A25D3A6422E1229900F40E95A2552C3A
:101D000012074C245C241300F50C95A24DEE90892B
:101D1000848B6402F60C85A24D3A6022E122990080
:101D2000F70A56A6951C62878800F80F67A1D5248C
:101D3000A25492882492C80800F90B95A24D340E43
:101D400090F0A212FA0B95A25D3A40C28B4A00FBBA
:101D50000B95A2552C1296F0A212FC0A85A24DB248
:101D600084179500FD0EB59A5D3A40C245429289AE
:101D70004400FE0EA59A854C469190562C321900CF
:101D8000FF0DA59A4DB2848B8424138900000000B6
:101D90000000000000240027002A000087251124ED
:101DA0001FBECFEFD8E0DEBFCDBF13E0A0E0B1E0B3
:101DB000E2E7F4E502C005900D92A839B107D9F722
:101DC00026E0A8E9B3E001C01D92A836B207E1F70A
:101DD0001EE0CFECDEE004C02197FE010E94252A20
:101DE000CE3CD107C9F70E94B71E0C94372A0C9439
:101DF0000000662329F06A3019F0862F90E00895DC
:101E00008FEF9FEF08950F93DC01D8965C91D897E0
:101E1000D9963C91213089F4631708F050C0B8EF8F
:101E20005B9F400D1124FC0122AD421708F047C012
:101E300001A8F2A9E02D21E041C0023019F4621B93
:101E40006F5F04C0033011F4421B4F5FF8EF5F9FD8
:101E5000400D1124DC01DA965C91702F717000FD49
:101E600014C0451760F5260F261730F4631718F4D1
:101E70002FEF230F03C060E0631708F52223F9F06A
:101E8000321708F4232F261B13C06317C0F4240F46
:101E9000241730F4451718F42FEF250F03C040E046
:101EA000451768F4222359F0521708F4252F241BF4
:101EB000DC01D196ED91FC91D297072F09950F91F6
:101EC0000895CF93DF93FC0127A9822F880F880FF5
:101ED000880F82AFA081B18150968C91509780324B
:101EE00008F08FE1880F880F880F81AF30AD932FF6
:101EF000990F990F990F93AF51966C915197432F6A
:101F000050E0420F511DC62FD0E0C417D50714F47E
:101F1000262F231B94AF492F38E0239F400D112417
:101F2000242F45AF30EF36AF54964D915C915597C5
:101F3000413F510508F446AF56963C9137AFDF015B
:101F4000A05CBF4F1C9211968C9311969C93ED5BF5
:101F5000FF4F2083DF91CF910895EF92FF920F936F
:101F60001F93CF93DF93DC01942F9770E1E0F0E0B3
:101F7000092E01C0EE0F0A94EAF71E2FED01CF588B
:101F8000DF4F8881823028F47E2F813019F410E0F1
:101F900001C070E050E0487FD596ED90FC90D69758
:101FA000ED91FC9111978089849FF001859FF00D40
:101FB0001124E60FF11DEE0DFF1D01110CC02E0FB7
:101FC0008081872B812781932E13FACF1DC0770F35
:101FD000110F2223C9F03081372B312730839F5FC7
:101FE000977021509111F3CFD9968C91D997E80F22
:101FF000F11D8881823020F4813021F011E002C08F
:1020000011E0E7CF71E0E5CFDF91CF911F910F9104
:10201000FF90EF90089580E00895213039F020F08E
:10202000223031F4861B0895860F0895841B08958D
:10203000840F0895213039F020F0223031F4841BD0
:102040000895840F0895860F0895861B08955F9262
:102050006F927F928F929F92AF92BF92CF92DF92B8
:10206000EF92FF920F931F93CF93DF936C01F62EA5
:10207000642EEC01C85BDF4F1C81BD804C0181E701
:10208000880E911CEE80E11AAE2CFE1408F4AF2CE1
:102090005B800C85202F4B2D612F8A810E940D10B3
:1020A000782E202F4B2D612F852D0E941A10482F3E
:1020B000662021F09A85D4019C9306C099859111E0
:1020C00011C09B85F4019083AA2061F0D601D396BC
:1020D000ED91FC91D4970280F381E02D2A2D672D9C
:1020E000C6010995FE1420F0FE18B39410E0CACF83
:1020F0001F0D1C83BD82DF91CF911F910F91FF9027
:10210000EF90DF90CF90BF90AF909F908F907F9097
:102110006F905F900895DC0118964C911897ED919F
:10212000FC911197249130E0042E02C0359527953B
:102130000A94E2F7862F840F883010F4E22F0EC045
:1021400031961196FC93EE939491E92F98E0941BAD
:1021500001C0EE0F9A95EAF7E22B885018968C93FF
:1021600081E090E001C0880F6A95EAF781508E23E4
:102170000895BF92CF92DF92EF92FF920F931F9339
:10218000CF93DF9300D000D01F92CDB7DEB78C0184
:10219000DC01D796BC90D797D896DC90D897ED9174
:1021A000FC91C188E12CF12CD801ED91FC911197A3
:1021B0008089D5964D915C91D6971C829D2D9E0D60
:1021C0009D838B83B8E08B9FC00111248E9D90016D
:1021D0008F9D300D9E9D300D1124CA01820F931FDB
:1021E0009A838983D8011496ED91FC9115979E01ED
:1021F0002F5F3F4F41E06FE0C801099581E08E0DF0
:102200008B1538F4BFEFEB1AFB0A8D2D8E0D8C1554
:1022100058F20F900F900F900F900F90DF91CF9189
:102220001F910F91FF90EF90DF90CF90BF90089596
:10223000CF92DF92EF92FF920F931F93CF93DF9392
:102240006C01EB017B01E40EF51E00E010E0CE1501
:10225000DF0561F06991D601ED91FC910190F0816B
:10226000E02DC6010995080F191FF1CFC801DF91B4
:10227000CF911F910F91FF90EF90DF90CF90089535
:10228000089580E090E00895FC01962F6831E1F117
:1022900060F4B901943179F0973109F0A0C050E0B1
:1022A00086E195E00E9434182DC0693109F443C0DD
:1022B000603241F194C01092010410920004109217
:1022C000FD031092FE031092030481E08093050445
:1022D0001092040461E082E10E94AC1761E083E1A6
:1022E0000E94AC178091B9008E7F8093B9008091D5
:1022F000B9008D7F8093B90088E48093B80085E4AD
:102300008093BC0081E00895A081B1811D968C91DD
:10231000843018F08CE08093B800828990E0959525
:10232000879591E09093FF038093CC031092FD0377
:102330001092FE03E7CF9091FE038091CC0391327F
:1023400008F046C0209103042111FCCF22E0209325
:10235000030421E0209305042FEF20930204109240
:10236000270490932604ADEDB3E046E054E0FA0173
:102370002E2F241B291718F42D912193F9CF109299
:10238000280490912804880F892B80932804809139
:102390000404813061F41092040480912804809335
:1023A000BB008091BC0083FDF8CF85EC01C085EEB9
:1023B0008093BC00809103048230E1F38091020499
:1023C0008F3F31F080910204803211F0809102043D
:1023D0001092FD031092FE031092FF0393CF80E052
:1023E00008958F929F92AF92BF92CF92DF92EF9219
:1023F000FF921F93CF93DF93EC016C3288F46A3223
:1024000008F083C06832B1F0693209F067C0C42EA9
:10241000D12CE12CF12C0E94B21A4B015C0137C087
:102420006D32D9F108F45AC084EB860F823008F47B
:1024300043C054C06B9610E089918F3F39F0103142
:1024400010F461E001C062E00E94761A1F5F16314D
:1024500099F75BC00E94B21ADC01CB018819990977
:10246000AA09BB09883E9340A105B10580F021E08F
:10247000C21AD108E108F10888EE880E83E0981EA0
:10248000A11CB11CC114D104E104F10419F7C11459
:10249000D104E104F104F1F638C0433018F082E0D1
:1024A00090E002C085E090E0880F991F880F991F87
:1024B00005970197F1F729C0962F9F73C90FD11D7A
:1024C000411107C061E08B8D0E94761A60E08B8D10
:1024D00012C062E08B8D0E94761A17C06034B8F08B
:1024E000962F9F73FE01E90FF11D838D8F3F69F0D9
:1024F000903120F4642F0E94AC1707C00E9483170C
:1025000021E0892B09F420E02E8B81E001C080E0DE
:10251000DF91CF911F91FF90EF90DF90CF90BF9010
:10252000AF909F908F900895DC011896ED91FC91EB
:10253000199720E030E040E069E10994DC01189649
:10254000ED91FC91199720E030E040E068E10994BA
:10255000CF93DF931F92CDB7DEB76983BE016F5F64
:102560007F4F0E94AE1E0F90DF91CF9108954F9242
:102570005F926F927F928F929F92AF92BF92CF9213
:10258000DF92EF92FF920F931F93CF93DF931F92EF
:10259000CDB7DEB72C01E62EF42E8901FC01EC5AF2
:1025A000FF4F80818130C9F070F0823001F18330BB
:1025B00039F5F201EA5BFF4F0190F081E02DC20195
:1025C0000995E80E1DC0F201EA5BFF4F0190F08112
:1025D000E02DC2010995F80E13C0F201EA5BFF4F2E
:1025E0000190F081E02DC2010995E81A09C0F201BD
:1025F000EA5BFF4F0190F081E02DC2010995F81AC6
:10260000F201E65BFF4FE0823196F08237978081DE
:10261000918147960F3F110509F020F5013611050C
:1026200010F0B49606C00134110538F0F201EA59F1
:10263000FF4F20813181820F931F9C012F5F3F4FFD
:10264000F9014491442309F4DAC0FC01449150E0BB
:102650004017510711F4029623C0F9012491820F0B
:10266000911DEBCFF201E659FF4F20813181820F9E
:10267000931FFC01449150E0542F44273196E4917C
:102680004E2B4115510509F4BAC04017510711F4FA
:10269000039606C0FC013296E4918E0F911DE9CF9E
:1026A000009709F4ACC08201085B1F4FF8019183C9
:1026B0008083108671966081C8010E948B10F8019A
:1026C000868372966081C8010E948B10B82EF80133
:1026D00087836201F1E7CF0ED11CF6019081F801EA
:1026E000928781E0911180E0F8018387F201E55A39
:1026F000FF4FF0806F2DC8010E948B109FEF9F0D40
:10270000EE24E394F12C970101C0220F9A95EAF789
:10271000782E721AF201E45AFF4FA0806A2DC80188
:102720000E948B10AA94470101C0880CAA94EAF772
:102730006B2C680EF201E35AFF4FA0806A2DC8018E
:102740000E948B10AA9401C0EE0CAA94EAF7A82E5E
:10275000AE18F801F6801F140CF090C0948586180E
:10276000292F482D672D828199830E940D10E82E14
:10277000F80182839981292F482D672D83810E943A
:102780001A10382FF80183839981913091F060F00D
:102790009230B1F09330F9F44E2D4B0D8F1991E03A
:1027A000930F31E0380F19C04E2D4F0D982F9B0D10
:1027B00014C0292F2B1941E04E0D982F9F0D09C0F1
:1027C00081E0282F2F1941E04E0D8B1991E0930FD6
:1027D000380FE20E02C0982F4E2DF201EE5BFF4F34
:1027E000808131962081321718F4891720F409C0AE
:1027F000891708F043C0931708F040C002C0A12C0D
:102800003DC0F201E05CFF4F808131969081E91676
:1028100018F4841718F404C0841780F54E1570F569
:10282000F801148215827201F7E5EF0EF11C4201E6
:1028300088E5880E911CF7016081C8010E948B1009
:10284000682EF4016081C8010E948B10782E40E050
:10285000662DC2010E94271041E0672DC2010E942F
:10286000271061E0C8010E948B108111F0CFF801A0
:1028700085818B1504F38285F60180838A2D0F9064
:10288000DF91CF911F910F91FF90EF90DF90CF904C
:10289000BF90AF909F908F907F906F905F904F9080
:1028A00008950F931F93CF93DF93EC018C010C5F7E
:1028B0001F4FFC01E958FF4F0190F081E02DC80146
:1028C00009958E3F2FEF920780F4FE01E658FF4FE7
:1028D000C758DF4F9C0140816881C8010E94B71230
:1028E000288190E0820F911D888381E090E0DF9144
:1028F000CF911F910F910895FC01E60FF11D849176
:1029000090E0982F88273196E4918E0F911D0895BD
:10291000FC01A081B18150969C9147A9949FA00190
:10292000112483E0440F551F8A95E1F760E070E0C1
:1029300085A996A90C94302A1F93CF93DF93EC01BD
:102940000E94B91018AD8FA9180FE881F98181890B
:10295000181750F0EC81FD8120E030E040E060E1AC
:10296000CE01099580E012C0FE01EE58FF4F808134
:10297000882319F0CE010E94881418AFEBA9FCA996
:102980000190F081E02DCE01099581E0DF91CF919A
:102990001F910895CF93DF93EC01FC01EE58FF4F98
:1029A0008081882319F0CE010E94881418AEEBA90B
:1029B000FCA90190F081E02DCE01DF91CF91099427
:1029C0001F920F920FB60F9211240F931F932F9304
:1029D0003F934F935F936F937F938F939F93AF93A7
:1029E000BF93CF93DF93EF93FF938091CA039091AE
:1029F000CB0301969093CB038093CA03883C910547
:102A00000CF4A7C00091C6031091C703000F111F5B
:102A1000F801E054FC4F8091C8039091C9032081D4
:102A20003181821B930B9093C9038093C80360E0AC
:102A300080916C050E94AC178FE99FE00197F1F738
:102A400000C000000E94771EC82FD0E0DC2FCC27EA
:102A50000E94771EC82B61E080916C050E94AC1724
:102A6000C2FD11C0BE0193E0769567959A95E1F796
:102A700080E090E00E94CD2820E030E040E85EE376
:102A80000E94842904C060E070E080EC9FE7E801C8
:102A9000C054DC4F20E030E040E151E40E94842942
:102AA00020E030E040EA50E40E94252820E030E0B9
:102AB00040E052E40E94B4270E94972879836883FB
:102AC0002091C6033091C703F901EE0FFF1FE054B8
:102AD000FC4F4091C8035091C90380819181840FBC
:102AE000951F9093C9038093C8032F5F3F4F2330F6
:102AF00031052CF43093C7032093C60304C0109211
:102B0000C7031092C60340912A0550912B0560918E
:102B10002C0570912D054093BC035093BD03609329
:102B2000BE037093BF0363E070E00E94F629072E96
:102B3000000C880B990B0E94CF2860932A05709394
:102B40002B0580932C0590932D051092CB031092AA
:102B5000CA03FF91EF91DF91CF91BF91AF919F9108
:102B60008F917F916F915F914F913F912F911F9125
:102B70000F910F900FBE0F901F901895CF92DF927C
:102B8000EF92FF920F931F93CF93DF936C017A0123
:102B90008B01C0E0D0E0CE15DF0589F0D8016D9142
:102BA0008D01D601ED91FC910190F081E02DC601DF
:102BB0000995892B11F47E0102C02196ECCFC70143
:102BC000DF91CF911F910F91FF90EF90DF90CF9009
:102BD0000895FC01538D448D252F30E0842F90E023
:102BE000821B930B541710F0CF9608950197089508
:102BF000FC01918D828D981761F0828DDF01A80F05
:102C0000B11D5D968C91928D9F5F9F73928F90E026
:102C100008958FEF9FEF0895FC01918D828D981795
:102C200031F0828DE80FF11D858D90E008958FEFD2
:102C30009FEF0895FC01918D228D892F90E0805C9B
:102C40009F4F821B91098F739927089589E794E01C
:102C50000E941A1621E0892B09F420E0822F0895A2
:102C6000FC01848DDF01A80FB11DA35ABF4F2C9129
:102C7000848D90E001968F739927848FA689B789F8
:102C80002C93A089B1898C9180648C93938D848DD1
:102C9000981306C00288F389E02D80818F7D8083A0
:102CA0000895EF92FF920F931F93CF93DF93EC0160
:102CB00081E0888F9B8D8C8D981305C0E889F989F8
:102CC000808185FD24C0F62E0B8D10E00F5F1F4F15
:102CD0000F731127E02E8C8DE8120CC00FB607FC85
:102CE000FACFE889F989808185FFF5CFCE010E946E
:102CF0003016F1CF8B8DFE01E80FF11DE35AFF4F27
:102D0000F0820B8FEA89FB898081806207C0EE899F
:102D1000FF896083E889F98980818064808381E00C
:102D200090E0DF91CF911F910F91FF90EF90089568
:102D3000CF93DF93EC01888D8823C9F0EA89FB8962
:102D4000808185FD05C0A889B9898C9186FD0FC059
:102D50000FB607FCF5CF808185FFF2CFA889B9892E
:102D60008C9185FFEDCFCE010E943016E7CFDF9129
:102D7000CF91089580E090E0892B29F00E942616DB
:102D800081110C94000008950E942B2ADC01ED9122
:102D9000FC910190F081E02D09946115710579F0A5
:102DA000FB0101900020E9F73197AF01461B570B5B
:102DB000DC01ED91FC910280F381E02D099480E02B
:102DC00090E008954F925F926F927F92EF92FF9200
:102DD0000F931F93CF93DF93CDB7DEB7A1970FB6B5
:102DE000F894DEBF0FBECDBF7C01FA01CB0119A262
:102DF000223008F42AE08E010F5D1F4F422E512C25
:102E0000612C712CBF01A30192010E948227F9015C
:102E1000CA01015011096A3014F4605D01C0695C97
:102E2000D8016C93232B242B252B61F7B801C70104
:102E30000E94CD16A1960FB6F894DEBF0FBECDBF8F
:102E4000DF91CF911F910F91FF90EF907F906F9046
:102E50005F904F9008951F920F920FB60F9211241A
:102E60002F933F934F935F936F937F938F939F9392
:102E7000AF93BF93EF93FF9389E794E00E943016DE
:102E8000FF91EF91BF91AF919F918F917F916F9142
:102E90005F914F913F912F910F900FBE0F901F9018
:102EA00018951F920F920FB60F9211242F938F93A4
:102EB0009F93EF93FF93E0918904F0918A048081BE
:102EC000E0918F04F091900482FD12C09081809176
:102ED00092048F5F8F7320919304821751F0E091D9
:102EE0009204F0E0E758FB4F958F8093920401C065
:102EF0008081FF91EF919F918F912F910F900FBE45
:102F00000F901F901895CF93DF93282F30E0F90191
:102F1000EC55FF4F8491F901E057FF4FD491F9012F
:102F2000E458FF4FC491CC2391F081110E944D1AB7
:102F3000EC2FF0E0EE0FFF1FEE58FF4FA591B4917C
:102F4000EC91ED2381E090E021F480E002C080E08C
:102F500090E0DF91CF9108951F93CF93DF93282FB7
:102F600030E0F901EC55FF4F8491F901E057FF4F34
:102F7000D491F901E458FF4FC491CC23C9F0162F26
:102F800081110E944D1AEC2FF0E0EE0FFF1FE8595F
:102F9000FF4FA591B4918FB7F894111105C09C9182
:102FA000ED2FE095E92302C0EC91ED2BEC938FBF60
:102FB000DF91CF911F91089585ED8093BC008091A2
:102FC000BC0084FDFCCF10920304089540914B0493
:102FD000262F30E0240F311D21323105DCF4209101
:102FE00003042430C9F4FC0180E090E0861758F413
:102FF00030914B042191DC01A75DBB4FA30FB11DA4
:103000002C930196F3CF80914B04680F60934B048F
:1030100080E0089581E0089582E00895089581E0B8
:1030200090E03091010420910004321710F480E008
:1030300090E0919581959109089580910104909176
:103040000004891730F48F5F8093010480E090E0E2
:1030500008958FEF9FEF08958091000490E02091F4
:103060000104821B91090895CF92DF92EF92FF92A3
:103070000F931F93CF93DF937C01262F972F8A0105
:103080008091FF03882391F0C62FD72F6E01C40EC5
:10309000D51ECC15DD0571F06991D701ED91FC913C
:1030A0000190F081E02DC7010995F3CF642F822FA5
:1030B0000E94E617C801DF91CF911F910F91FF90F9
:1030C000EF90DF90CF900895CF93DF931F92CDB70D
:1030D000DEB769832091FF032223D1F02091FE0304
:1030E000203240F021E030E0FC013383228380E095
:1030F00090E015C08091FD03E82FF0E0E352FC4F13
:10310000998190838F5F8093FD038093FE0305C0B8
:1031100061E0CE0101960E94E61781E090E00F90F9
:10312000DF91CF91089580E00895DC011A96ED912A
:10313000FC911B9720E030E00994DC011696ED919C
:10314000FC91179720E030E040E069E10994DC0150
:103150001696ED91FC91179720E030E040E068E191
:1031600009949A01DC011696ED91FC911797462F70
:1031700067E10994EF92FF920F931F93CF93DF9330
:103180001F92CDB7DEB77C018B01D8016C916731FE
:10319000E1F078F46531A0F1F80141814983D7016C
:1031A0001696ED91FC91179720E030E0C701099544
:1031B00024C06A31A8F06E3F19F5F80141814983B6
:1031C00069E2C7010E94951818C0F80181818983BE
:1031D000AE014F5F5F4F61E0C7010E94B1180DC0A3
:1031E0000F5F1F4FD7011696ED91FC91179720E0C6
:1031F00030E040E0C7010995C8CF0E5F1F4FC5CF33
:103200000F90DF91CF911F910F91FF90EF90089554
:10321000462FDC011696ED91FC91179720E030E0E7
:1032200066E10994462FDC011696ED91FC91179703
:1032300020E030E065E10994EF92FF920F931F9335
:10324000CF93DF93EC01142F79016D30A9F118F4BD
:103250006B3039F15FC06E3009F441C06F3009F056
:1032600059C00E94A718F70183810889F8E08F9F51
:10327000000D112460E4CE010E941219602F6295A6
:103280006F706061CE010E941219602F6F70CE01C5
:103290000E940819F7016481606BCE010E94081931
:1032A00029C0411103C065E171E002C060E171E035
:1032B000CE010E94BA1871C0411108C069E071E0E6
:1032C0000E94BA18E881F981828907C062E071E042
:1032D0000E94BA18E881F9818389888B5EC00E94B8
:1032E000A71861E8CE010E941219612FCE010E9439
:1032F00008190CC0F701408151816281660F660F89
:10330000660FCE010E94B1181150A1F7CE010E94A4
:103310009D1843C0693031F48FE491E0998388832C
:1033200082E0DBCF6A30B9F5EA85FB8520E030E04A
:1033300040E068E2CE010995EE81FF8120E030E0B7
:1033400040E064E1CE01099541E06BE4CE010E94CA
:103350009518E881F981448169E2CE010E949518AF
:1033600040E06BE4CE010E949518E881F981448128
:1033700069E2CE010E94951841E06BE4CE010E9403
:103380009518E881F981458169E2CE010E9495187E
:103390006AE171E08DCF80E001C081E0DF91CF91E3
:1033A0001F910F91FF90EF900895EF92FF921F935E
:1033B000CF93DF93EC01162F7A010E949E1260E4F6
:1033C000CE010E94A812E885F9859701412F67E197
:1033D000CE010995CE01DF91CF911F91FF90EF9023
:1033E0000C949412EF92FF921F93CF93DF9300D02F
:1033F000CDB7DEB77C01142F673128F4653140F476
:10340000643149F141C0673191F06A3170F03CC0DC
:103410000E949E1260E0C7010E94A812612FC7019E
:103420000E94A812C7010E94941281E02EC0A90137
:10343000193160F068E1C70129833A830E94D519E8
:10344000185129813A81285E3F4FF1CF612FC70182
:103450000E94D519EACFDC0152968C9152978F3F8A
:1034600019F488E752968C93D7011896ED91FC9148
:103470001997412F64E1C7010F900F90DF91CF9111
:103480001F91FF90EF90099480E00F900F90DF91D3
:10349000CF911F91FF90EF900895833081F028F431
:1034A000813099F08230A1F008958730A9F08830FA
:1034B000B9F08430D1F4809180008F7D03C0809179
:1034C00080008F7780938000089584B58F7702C045
:1034D00084B58F7D84BD08958091B0008F7703C03F
:1034E0008091B0008F7D8093B0000895CF93DF93DB
:1034F00090E0FC01E057FF4F2491FC01E458FF4F9E
:103500008491882361F190E0880F991FFC01EF56A8
:10351000F24EC591D491FC01E859FF4FA591B491A9
:10352000611109C09FB7F894888120958223888310
:10353000EC912E230BC0623061F49FB7F894388170
:10354000822F809583238883EC912E2B2C939FBF11
:1035500006C08FB7F894E8812E2B28838FBFDF91A8
:10356000CF9108953FB7F8948091750490917604B7
:10357000A0917704B091780426B5A89B05C02F3F91
:1035800019F00196A11DB11D3FBFBA2FA92F982F89
:103590008827820F911DA11DB11DBC01CD0142E004
:1035A000660F771F881F991F4A95D1F708952FB787
:1035B000F8946091710470917204809173049091F9
:1035C00074042FBF08951F920F920FB60F9211240B
:1035D0002F933F938F939F93AF93BF9380917104E9
:1035E00090917204A0917304B091740430917004AE
:1035F00023E0230F2D3720F40196A11DB11D05C036
:1036000026E8230F0296A11DB11D2093700480931C
:10361000710490937204A0937304B0937404809126
:10362000750490917604A0917704B0917804019686
:10363000A11DB11D8093750490937604A093770427
:10364000B0937804BF91AF919F918F913F912F914B
:103650000F900FBE0F901F9018951F920F920FB6EC
:103660000F9211242F933F934F935F936F937F9308
:103670008F939F93AF93BF93EF93FF938091B90084
:10368000887F803609F49CC068F5883209F45BC0F5
:1036900090F4803109F454C038F4882309F4F6C05A
:1036A000883009F44DC0F6C0883109F44CC080322E
:1036B00009F45DC0EFC0803409F468C048F4803379
:1036C00009F455C0883309F0E5C080930204D8C0DE
:1036D000803509F44FC0883509F45DC0883409F09D
:1036E000D9C0D6C0883909F4C7C0A8F4883709F40E
:1036F00067C038F4883609F463C0803709F460C0C5
:10370000C9C0883809F4B8C0803909F45FC080386E
:1037100009F0C0C05BC0803B09F486C038F4803A31
:1037200009F466C0883A09F47FC0B4C0803C09F44B
:10373000A7C0883C09F4A4C0883B09F48AC0AAC089
:103740008091280410C09091270480912604981736
:1037500070F5E091270481E08E0F80932704F0E05C
:10376000EA5FFB4F80818093BB0085EC86C080932D
:1037700002048EC0E091270481E08E0F809327041D
:103780008091BB00F0E0EA5FFB4F808390912704BB
:10379000809126046EC0E091270481E08E0F809313
:1037A00027048091BB00F0E0EA5FFB4F80838091AB
:1037B000050481116DC081E08093040484EA61C036
:1037C00083E08093030410926F04CFCF80916F0445
:1037D000803208F051C0E0916F0481E08E0F809339
:1037E0006F048091BB00F0E0E15BFB4F8083BDCFB5
:1037F00085EC8093BC001092030480916F048032AA
:1038000030F4E0916F04F0E0E15BFB4F10826091D7
:103810006F0470E0E0914D04F0914E048FE494E069
:10382000099510926F0436C084E0809303041092CF
:103830004C0410924B04E0914904F0914A0409951C
:1038400080914B04811105C081E080934B0410925C
:103850002904E0914C0481E08E0F80934C04F0E049
:10386000E75DFB4F80818093BB0090914C04809179
:103870004B04981708F479CF85E88093BC000AC000
:1038800085EC8093BC001092030404C010920204E3
:103890000E94DC17FF91EF91BF91AF919F918F91A3
:1038A0007F916F915F914F913F912F910F900FBE3C
:1038B0000F901F901895FF920F931F93CF93DF9354
:1038C000C82FD62F109286058A01F12CF80161913C
:1038D0008F01E0917305F091740581E795E00995FA
:1038E0008F3FFFEF9F07E9F08E3F2FEF920771F3B5
:1038F0009C014D2F6C2F81E795E00E94B71220911B
:10390000C505213049F030F0223041F0233039F440
:10391000D81B05C0C80F03C0D80F01C0C81BF80EC4
:10392000D5CF8F2DDF91CF911F910F91FF900895EB
:1039300029EF3EE030937405209373050C945B1CD3
:10394000CF93DF93BC0189E794E00E94CD16EC0190
:103950006BE072E089E794E00E94CD168C0F9D1F0A
:10396000DF91CF910895BC0189E794E00C94CD16C6
:10397000CF93DF932091B5053091B605281739070D
:1039800009F4AAC0EC019093B6058093B505FC013B
:1039900084918093C6053196E491E093C705FE01BA
:1039A0003296E491E093C805FE013396E491E093EA
:1039B000C905FE013496E491E093CA05FE013596EF
:1039C000E491E093CB05FE013696E491E093CC05BB
:1039D000FE013796E491E093CD05FE013896E4911F
:1039E000E093CE05FE013996E491E093CF05FE0108
:1039F0003A96E491E093D005FE013B96E491E09382
:103A0000D105FE013C96E491E093D205FE013D967E
:103A1000E491E093D305FE013E96E491E093D40552
:103A2000FE013F96E491E093D505FE017096E49186
:103A3000E093D60561E1CE010E947C149093D805F5
:103A40008093D70563E1CE010E947C149093DA0540
:103A50008093D90565E1CE010E947C149093DC052A
:103A60008093DB058091B5059091B605892BA1F176
:103A70008091D3058093DE054091D4054093DF0506
:103A80009091DD05992341F1913069F49091D5052C
:103A9000891714F49093DE058091D6058417E4F419
:103AA0008093DF0519C03091D0052091D205082EF2
:103AB000000C990B622F022E000C770B630F711D07
:103AC00037FD7A95861797071CF4320F3093DE0581
:103AD000241714F42093DF05DF91CF9108958F927E
:103AE0009F92AF92BF92CF92DF92EF92FF920F938D
:103AF0001F93CF93DF93EC016A017B019A01AB0125
:103B0000C701B6010E94F129882319F06CE873E01F
:103B100027C046015701E894B7F82FEF3FEF4FE772
:103B20005FE7C501B4010E94F12981110DC02FEF9B
:103B30003FEF4FE75FE7C501B4010E942028181648
:103B40001CF460E973E00CC02FEF3FEF4FE75FE438
:103B5000C701B6010E947F2918168CF464E973E04E
:103B6000CE01DF91CF911F910F91FF90EF90DF90E9
:103B7000CF90BF90AF909F908F900C94CD162FEF69
:103B80003FEF4FE75FECC701B6010E94202887FD99
:103B9000E5CF20E030E0A901C701B6010E9420284E
:103BA00087FF0AC06DE2CE010E94C6168C01F7FAAB
:103BB000F094F7F8F09402C000E010E02AE037ED4E
:103BC00043EA5BE3C701B6010E94B4276B017C01A5
:103BD0000E949E284B015C010E94CD289B01AC01F4
:103BE000C701B6010E94B3276B017C012AE0B50131
:103BF000A401CE010E94E216080F191F6EE2CE0149
:103C00000E94C616080F191F20E030E040E251E480
:103C1000C701B6010E9484294B015C010E949E28C5
:103C20006B01E12CF12C2AE0B701A601CE010E9424
:103C3000E216080F191FC701B6010E94CD289B018B
:103C4000AC01C501B4010E94B32720E030E040E29E
:103C500051E40E9484290E949E28AB0160E070E03C
:103C60002AE0CE010E94E216800F911FDF91CF91D2
:103C70001F910F91FF90EF90DF90CF90BF90AF908A
:103C80009F908F900895CF92DF92EF92FF92CF9303
:103C9000DF936C01990FEE08FF08F7FE1BC06DE281
:103CA00089E794E00E94C616EC0144275527BA0123
:103CB0004C195D096E097F092AE089E794E00E94AA
:103CC000E2168C0F9D1FDF91CF91FF90EF90DF9058
:103CD000CF9008952AE0B701A60189E794E0DF912B
:103CE000CF91FF90EF90DF90CF900C94E216EF927F
:103CF000FF921F93CF93DF93C7E0D0E010E0EE2454
:103D0000E394F12C60E080916A050E94AC178FE982
:103D10009FE00197F1F700C0000080916B050E94C1
:103D20008317892B39F0C7010C2E01C0880F0A9424
:103D3000EAF7182B61E080916A050E94AC178FE9C1
:103D40009FE00197F1F700C000002197D8F6812F7E
:103D5000DF91CF911F91FF90EF9008959B01DC01BF
:103D60001896ED91FC91199741E067E10994CF9382
:103D7000DF93CDB7DEB72E970FB6F894DEBF0FBE38
:103D8000CDBF789484B5826084BD84B5816084BDE4
:103D900085B5826085BD85B5816085BD80916E00E9
:103DA000816080936E00109281008091810082601A
:103DB0008093810080918100816080938100809157
:103DC00080008160809380008091B1008460809346
:103DD000B1008091B00081608093B00080917A0042
:103DE000846080937A0080917A00826080937A0068
:103DF00080917A00816080937A0080917A00806857
:103E000080937A001092C1008FEA87BD80916E0086
:103E1000826080936E0081EC94E10E94B81CE09176
:103E20007505F091760520E030E040E06AE081E73A
:103E300095E0099581E795E00E94CA1481E795E035
:103E40000E949C148111FACFE0917505F0917605DE
:103E500020E030E040E06BE081E795E00995E091FB
:103E60008904F0918A0482E08083E0918504F091D6
:103E700086041082E0918704F09188048FEC80839F
:103E800010929104E0918D04F0918E0486E080837D
:103E9000E0918B04F0918C04808180618083E091BB
:103EA0008B04F0918C04808188608083E0918B0486
:103EB000F0918C04808180688083E0918B04F09184
:103EC0008C0480818F7D808383EB91E00E94B31C02
:103ED00084E092E00E94B31C2AE043E35AE260E0EF
:103EE00070E089E794E00E94E2166BE072E089E7F7
:103EF00094E00E94CD1689E092E00E94A01C8EE022
:103F000092E00E94B31C89E092E00E94A01C8FE125
:103F100092E00E94B31C89E092E00E94A01C8EE017
:103F200092E00E94B31C89E092E00E94A01C80E312
:103F300092E00E94B31C89E092E00E94A01C89E0FC
:103F400092E00E94A01C61E085E00E94761A61E088
:103F500085E00E94AC1761E086E00E94761A60E07E
:103F600086E00E94AC1761E088E00E94761A0E9409
:103F7000D71A6093D1037093D2038093D3039093A5
:103F8000D4031092600510926105109262051092A0
:103F90006305812C912C54E3A52E55E4B52E809217
:103FA000640590926505A0926605B09267058091C0
:103FB0006805882309F446C000914C0510914D0511
:103FC000D801CD90DD90ED90FC90A5019401C70142
:103FD000B6010E947F29181634F4F801808291827C
:103FE000A282B3820FC020E030E0A901C701B60170
:103FF0000E94202887FF06C0D8011D921D921D92A5
:104000001C9213978090540590905505A0905605EA
:10401000B0905705C0906405D0906505E0906605A6
:10402000F0906705A7019601C501B4010E947F29A0
:1040300018165CF4C0925405D0925505E0925605CE
:10404000F092570541E4242E3AC0C0906005D0900C
:104050006105E0906205F0906305A7019601C50136
:10406000B4010E94202887FFEDCFE4CFA501940181
:10407000C701B6010E94B3276B017C0120E030E04C
:10408000A9010E947F2918160CF02FC520E030E00E
:1040900040E251E4C701B6010E94202887FD30C5E7
:1040A0008091D9039091DA03019709F429C581E73A
:1040B00095E00E949C148111ACC30E94BA1681E75E
:1040C00095E00E9488148091DB039091DC030A97AD
:1040D0008334944098F081E492E00E94A01C1092F6
:1040E000DA031092D90310926805109226051092F7
:1040F0002705109228051092290559C083E792E000
:104100000E94A01CE1E0F0E0F093DA03E093D90311
:1041100080916805811148C0E0914C05F0914D05F2
:10412000C080D180E280F380C0925405D0925505C2
:10413000E0925605F0925705E0914A05F0914B0543
:1041400080819181A281B381809358059093590514
:10415000A0935A05B0935B05809064059090650527
:10416000A0906605B0906705A5019401C701B6014E
:104170000E947F29181684F0809060059090610558
:10418000A0906205B0906305A5019401C701B60136
:104190000E94202887FF08C0809254059092550500
:1041A000A0925605B0925705F1E0F0936805809112
:1041B000DB039091DC039093D8038093D70330E422
:1041C000C32EC0927C0080917A00806480937A0034
:1041D00080917A0086FDFCCFA091780080917900D3
:1041E000B0E0B82BB093DC03A093DB038091D7033E
:1041F0009091D8038A1B9B0B9093D6038093D50391
:1042000022E533E00E940A2A2FEF33E040E050E03D
:104210000E945827CA01B9010E94CF2820E030E04F
:1042200040E251E40E9425286B017C0120E030E04F
:10423000A9010E947F2920E030E040E05FE387FD94
:1042400005C0C701B6010E94B42704C0C701B6016A
:104250000E94B3270E9497289B01AC01AAE0B0E01E
:104260000E9477270E94CF286B017C0120E030E07C
:1042700046E953E40E94202887FD09C0C092220528
:10428000D0922305E0922405F09225050CC080E031
:1042900090E0A6E9B3E48093220590932305A093D0
:1042A0002405B093250520E030E844E554E460910E
:1042B00022057091230580912405909125050E9487
:1042C0007F29181664F480E090E8A4E5B4E48093B4
:1042D000220590932305A0932405B0932505809192
:1042E0000001909101012CE0D22ED89EF001D99EC0
:1042F000F00D1124E956FE4FC084D184E284F3848A
:1043000084809580A680B7804080518062807380D1
:10431000009148051091490520E030E0A901C30152
:10432000B2010E94202887FDA2C020E030E0A90150
:10433000C501B4010E94202887FD99C020E030E02B
:10434000A901C701B6010E94202887FD90C081E025
:104350000130110509F080E08093690540922E0537
:1043600050922F056092300570923105809232058F
:1043700090923305A0923405B0923505C09236056F
:10438000D0923705E0923805F092390560915C05CE
:1043900070915D0580915E0590915F050E94CD282A
:1043A00020E030E04AE754E40E94252869837A83BC
:1043B0008B839C8340923A0550923B0560923C056A
:1043C00070923D059B01AC01C501B4010E94842996
:1043D0004B015C0160933E0570933F05809340055F
:1043E0009093410529813A814B815C81C701B601D7
:1043F0000E9425286B017C01609342057093430560
:10440000809344059093450580914605909147051A
:10441000019769F5A301920160E070E0CB010E9471
:10442000B32760933A0570933B0580933C059093C6
:104430003D05A501940160E070E0CB010E94B32727
:1044400060933E0570933F0580934005909341052E
:10445000A701960160E070E0CB010E94B327609352
:1044600042057093430580934405909345058091E0
:104470006805882309F43EC10E94D71A6D837E83A4
:104480008F8398878091500590915105A091520596
:10449000B09153054D815E816F817885481B590B22
:1044A0006A0B7B0B80915C0590915D05A0915E0588
:1044B000B0915F05481759076A077B0708F41AC1CE
:1044C00020914A0530914B05D901CD90DD90ED90BA
:1044D000FC90C982DA82EB82FC82E0914E05F09179
:1044E0004F05A701960160817181828193810E94AD
:1044F000B3274B015C01209158053091590540913B
:104500005A0550915B05C701B6010E94B3276B01A4
:104510007C0120913E0530913F054091400550912E
:104520004105C501B4010E948429209154053091B0
:10453000550540915605509157050E94B4272B010F
:104540003C016093540570935505809356059093F4
:1045500057053090690531101AC020913A05309105
:104560003B0540913C0550913D05C701B6010E94B5
:1045700084299B01AC01C301B2010E94B32760935F
:1045800054057093550580935605909357054090B8
:104590005405509055056090560570905705009150
:1045A000640510916505B0916605BE87E0916705C9
:1045B000ED8798014B2F5E2FC301B2010E947F2926
:1045C000181624F4C801AE85BD8518C08091600519
:1045D00090916105A0916205B091630589879A87E2
:1045E000AB87BC879C01AD01C301B2010E942028AA
:1045F00087FF0CC089859A85AB85BC85809354055F
:1046000090935505A0935605B0935705332079F044
:1046100020913A0530913B0540913C0550913D0574
:10462000C501B4010E9484294B015C0103C0812CA7
:10463000912C54012091420530914305409144054D
:1046400050914505C701B6010E9484299B01AC0128
:1046500060915405709155058091560590915705CC
:104660000E94B3279B01AC01C501B4010E94B4278D
:104670006B017C0198014E855D850E947F2918168B
:10468000B4F00091600510916105909162059E87DC
:10469000A0916305AD879801492F5A2FB601C70134
:1046A0000E94202887FD03C08601EE86FD86E091EA
:1046B0004C05F0914D05C801AE85BD858083918381
:1046C000A283B383C980DA80EB80FC80C092580556
:1046D000D0925905E0925A05F0925B05CD80DE80BC
:1046E000EF80F884C0925005D0925105E0925205B7
:1046F000F09253050E94D71A0091D1031091D20372
:104700002091D3033091D4036B017C01C01AD10AEC
:10471000E20AF30A41E6C41649E0D406E104F104D2
:1047200060F0005A164F2F4F3F4F0093D103109364
:10473000D2032093D3033093D4030091D10310917B
:10474000D2032091D3033091D403601B710B820BF1
:10475000930B0E94CD289B01AC01609126057091BE
:10476000270580912805909129050E947F29181618
:1047700014F461E001C060E088E00E94AC170E9480
:10478000D71A0091CD031091CE032091CF03309121
:10479000D0036B017C01C01AD10AE20AF30A41E698
:1047A000C41649E0D406E104F10440F06093CD035F
:1047B0007093CE038093CF039093D00321ED32E228
:1047C0004BE75FE3609122057091230580912405FA
:1047D000909125050E9484299B01AC0160912A05D6
:1047E00070912B0580912C0590912D050E947F29B9
:1047F00018162CF4109201011092000106C081E0FD
:1048000090E0909301018093000181E795E00E9480
:10481000CA1481EC94E10E94B81C86EA92E00E94DE
:10482000B31C40912205509123056091240570919D
:10483000250589E794E00E946F1D89E092E00E94BF
:10484000B31C80EB92E00E94B31C21ED32E24BE7F7
:104850005FE360912205709123058091240590917A
:1048600025050E948429AB01BC0189E794E00E94E0
:104870006F1D89E092E00E94B31C89EB92E00E94D8
:10488000B31C40912A0550912B0560912C05709125
:104890002D0589E794E00E946F1D89E092E00E9457
:1048A000B31C80EC92E00E94B31C4091260550910D
:1048B0002705609128057091290589E794E00E94F9
:1048C0006F1D89E092E00E94B31C88EC92E00E9488
:1048D000B31C8091DB039091DC030E94431E89E0AE
:1048E00092E00E94B31C82ED92E00E94B31C809182
:1048F000D9039091DA030E94431E89E092E00E945E
:10490000B31C8FED92E00E94B31C88E00E948317D5
:104910000E94431E89E092E00E94B31C88EE92E060
:104920000E94B31C8091D5039091D6030E94431E30
:1049300089E092E00E94B31C89E092E00E94A01CF2
:1049400086E49CE00E94B81C47EF52E066E080E0FD
:104950000E94981C49E053E06EE080E00E94981CA1
:1049600088EB90E00E94B81C8091D9039091DA0303
:1049700046E153E06AE10197A9F480E00E94981CA7
:104980002092E6058AE18093E70540912205509147
:10499000230560912405709125058DE695E00E9420
:1049A0006F1D09C080E00E94981C42E253E06AE15A
:1049B00086E40E94981C4DE153E068E280E00E948A
:1049C000981C2092E60588E28093E70540912A052D
:1049D00050912B0560912C0570912D058DE695E089
:1049E0000E946F1D86E49CE00E94B81C20E030E02D
:1049F0004AED52E460912A0570912B0580912C05B7
:104A000090912D050E947F2918161CF446E253E070
:104A100002C049E353E062E380E00E94981C2091C9
:104A20002A0530912B0540912C0550912D05609160
:104A300022057091230580912405909125050E94FF
:104A4000B3276B017C0120E030E0A9010E947F299F
:104A500018165CF420E030E040E050E4C701B601F5
:104A60000E94202887FF11C00AC020E030E040E00B
:104A700050ECC701B6010E947F29181634F44DE4AA
:104A800053E066E380E00E94981C80902A05909095
:104A90002B05A0902C05B0902D05C0902205D0903C
:104AA0002305E0902405F0902505A7019601C50196
:104AB000B4010E94B3272B013C0120E030E040E329
:104AC00051E40E947F2918161CF44DE553E01AC0EA
:104AD00020E030E040E351E4C301B2010E9420280D
:104AE00087FFC4CA4CE653E00DC020E030E040E24E
:104AF00051ECC701B6010E947F2918160CF0D0CAEC
:104B00004BE753E066E380E00E94981CD0CA4F92C6
:104B10005F926F927F928F929F92AF92BF92CF924D
:104B2000DF92EF92FF92CF9310927C0410927B045D
:104B300088EE93E0A0E0B0E080937D0490937E0443
:104B4000A0937F04B09380042BE631E030937A0485
:104B50002093790425EC30E030938604209385047B
:104B600024EC30E0309388042093870420EC30E07C
:104B700030938A042093890421EC30E030938C0434
:104B800020938B0422EC30E030938E0420938D042C
:104B900026EC30E03093900420938F04109292041E
:104BA0001092930410929404109295041092190597
:104BB0001092180580931A0590931B05A0931C056D
:104BC000B0931D058DE791E090931705809316052E
:104BD0001092700510926F0589EF9EE09093E505A5
:104BE0008093E4051092E6051092E7051092860581
:104BF0008FE891E090936E0580936D051092720599
:104C00001092710510928205109285058FEF8093A6
:104C1000830580938805ECE8F5E09FEF86E18E0F31
:104C2000CFEF91938E13FCCF8CE199E190937605B1
:104C30008093750582EF99E19093780580937705CD
:104C400084E491E190937A058093790581EF91E175
:104C500090937C0580937B0520E030E040E069E0A4
:104C600081E795E00E941C191092B6051092B505D7
:104C70008DEA9FE09093A3058093A20588EE95E0CE
:104C80009093A7058093A60581E08093A8051092D4
:104C9000A9058093E2058093E3058FEA91E0909364
:104CA000A5058093A40581E795E00E94610F8BE044
:104CB00090E19093B8058093B7051092C505C09315
:104CC0009705C0939805C093990584E080936A0581
:104CD00083E080936C0582E080936B0561E083E064
:104CE0000E94761A61E080916A050E94761A60E05F
:104CF00080916B050E94761A61E080916C050E949C
:104D0000AC1780910001909101012CE0289FF001E7
:104D1000299FF00D1124E956FE4FC084D184E2840E
:104D2000F38484809580A680B78040805180628023
:104D3000738086E295E090934D0580934C058AE25E
:104D400095E090934B0580934A0582E295E090931D
:104D50004F0580934E0510926805109260051092E1
:104D60006105109262051092630580E090E0AFE764
:104D7000B3E48093640590936505A0936605B093B2
:104D8000670584E690E0A0E0B0E080935C05909336
:104D90005D05A0935E05B0935F05109247051092E4
:104DA000460520E030E0A901C301B2010E9420289D
:104DB00087FD58C020E030E0A901C501B4010E9480
:104DC000202887FD4FC020E030E0A901C701B601CF
:104DD0000E94202887FD46C0109249051092480580
:104DE0001092690540922E0550922F056092300571
:104DF000709231058092320590923305A09234056D
:104E0000B0923505C0923605D0923705E09238054C
:104E1000F092390540923A0550923B0560923C056C
:104E200070923D052DEC3CEC4CEC5DE3C501B4010A
:104E30000E94842960933E0570933F05809340054E
:104E4000909341052DEC3CEC4CEC5DE3C701B601C1
:104E50000E94252860934205709343058093440582
:104E6000909345050E94D71AC0905C05D0905D05CF
:104E7000E0905E05F0905F05DC01CB018C199D0987
:104E8000AE09BF098093500590935105A093520538
:104E9000B0935305CF91FF90EF90DF90CF90BF90EC
:104EA000AF909F908F907F906F905F904F900895FC
:104EB000052E97FB1EF400940E946F2757FD07D024
:104EC0000E94822707FC03D04EF40C946F27509564
:104ED0004095309521953F4F4F4F5F4F08959095E6
:104EE0008095709561957F4F8F4F9F4F08950E94D9
:104EF000A427A59F900DB49F900DA49F800D911D98
:104F000011240895A1E21A2EAA1BBB1BFD010DC09E
:104F1000AA1FBB1FEE1FFF1FA217B307E407F50769
:104F200020F0A21BB30BE40BF50B661F771F881F45
:104F3000991F1A9469F760957095809590959B01DB
:104F4000AC01BD01CF010895A29FB001B39FC00184
:104F5000A39F700D811D1124911DB29F700D811DA5
:104F60001124911D08955058BB27AA270E94CB27D2
:104F70000C9445290E94372938F00E943E2920F0E0
:104F800039F49F3F19F426F40C9434290EF4E0957B
:104F9000E7FB0C942E29E92F0E94562958F3BA17E3
:104FA000620773078407950720F079F4A6F50C943F
:104FB00078290EF4E0950B2EBA2FA02D0B01B90124
:104FC00090010C01CA01A0011124FF27591B99F07F
:104FD000593F50F4503E68F11A16F040A22F232F8B
:104FE000342F4427585FF3CF469537952795A795DB
:104FF000F0405395C9F77EF41F16BA0B620B730B82
:10500000840BBAF09150A1F0FF0FBB1F661F771FF2
:10501000881FC2F70EC0BA0F621F731F841F48F4A7
:10502000879577956795B795F7959E3F08F0B0CF30
:105030009395880F08F09927EE0F97958795089517
:105040000E940A2908F481E008950E9439280C94EE
:1050500045290E943E2958F00E94372940F029F442
:105060005F3F29F00C942E2951110C9479290C944E
:1050700034290E94562968F39923B1F3552391F3FB
:10508000951B550BBB27AA2762177307840738F0B7
:105090009F5F5F4F220F331F441FAA1FA9F335D014
:1050A0000E2E3AF0E0E832D091505040E695001CC8
:1050B000CAF72BD0FE2F29D0660F771F881FBB1F82
:1050C000261737074807AB07B0E809F0BB0B802D60
:1050D000BF01FF2793585F4F3AF09E3F510578F08C
:1050E0000C942E290C9479295F3FE4F3983ED4F375
:1050F000869577956795B795F7959F5FC9F7880F60
:10510000911D9695879597F90895E1E0660F771FB1
:10511000881FBB1F621773078407BA0720F0621B42
:10512000730B840BBA0BEE1F88F7E09508950E946D
:105130009E286894B1110C94792908950E945E29E3
:1051400088F09F5798F0B92F9927B751B0F0E1F048
:10515000660F771F881F991F1AF0BA95C9F714C0F8
:10516000B13091F00E947829B1E008950C9478292B
:10517000672F782F8827B85F39F0B93FCCF3869531
:1051800077956795B395D9F73EF49095809570958E
:1051900061957F4F8F4F9F4F0895E89409C097FB0B
:1051A0003EF490958095709561957F4F8F4F9F4FFE
:1051B0009923A9F0F92F96E9BB279395F695879542
:1051C00077956795B795F111F8CFFAF4BB0F11F405
:1051D00060FF1BC06F5F7F4F8F4F9F4F16C08823AC
:1051E00011F096E911C0772321F09EE8872F762FE2
:1051F00005C0662371F096E8862F70E060E02AF023
:105200009A95660F771F881FDAF7880F969587950E
:1052100097F90895990F0008550FAA0BE0E8FEEFE3
:1052200016161706E807F907C0F012161306E4076A
:10523000F50798F0621B730B840B950B39F40A2663
:1052400061F0232B242B252B21F408950A2609F441
:10525000A140A6958FEF811D811D089597F99F6745
:1052600080E870E060E008959FEF80EC08950024EE
:105270000A941616170618060906089500240A94BB
:1052800012161306140605060895092E0394000C41
:1052900011F4882352F0BB0F40F4BF2B11F460FFD0
:1052A00004C06F5F7F4F8F4F9F4F089557FD9058F9
:1052B000440F551F59F05F3F71F04795880F97FBDA
:1052C000991F61F09F3F79F0879508951216130694
:1052D0001406551FF2CF4695F1DF08C016161706C3
:1052E0001806991FF1CF86957105610508940895F8
:1052F000E894BB2766277727CB0197F908950E948A
:105300000A2908F48FEF08950E9497290C944529E3
:105310000E94372938F00E943E2920F0952311F091
:105320000C942E290C94342911240C9479290E9470
:10533000562970F3959FC1F3950F50E0551F629F5A
:10534000F001729FBB27F00DB11D639FAA27F00DDE
:10535000B11DAA1F649F6627B00DA11D661F829F05
:105360002227B00DA11D621F739FB00DA11D621FEA
:10537000839FA00D611D221F749F3327A00D611D07
:10538000231F849F600D211D822F762F6A2F1124E9
:105390009F5750409AF0F1F088234AF0EE0FFF1F1C
:1053A000BB1F661F771F881F91505040A9F79E3F73
:1053B000510580F00C942E290C9479295F3FE4F379
:1053C000983ED4F3869577956795B795F795E795C9
:1053D0009F5FC1F7FE2B880F911D9695879597F9D2
:1053E00008950E940A29880B990B089597FB072EB0
:1053F00016F4009407D077FD09D00E94112A07FC0B
:1054000005D03EF4909581959F4F089570956195D4
:105410007F4F08950E94A427B7FF0895821B930B26
:105420000895AA1BBB1B51E107C0AA1FBB1FA617EB
:10543000B70710F0A61BB70B881F991F5A95A9F73D
:1054400080959095BC01CD010895EE0FFF1F05904A
:10545000F491E02D099481E090E0F8940C94372ABF
:10546000DC0101C06D9341505040E0F70895F8947D
:02547000FFCF6C
:1054720001001815A015C019FF1815A115C819FFAC
:105482001815AE19FF1815AF19FF1815AE15D51658
:105492008015A8163F15D316001540158D16141544
:1054A20020160015A115C815DA1612158116CF158A
:1054B200D916F115DB1640152E15A415A619FF00F5
:1054C20001140A6464323200127A0003042896102E
:1054D20008020280004000000000005116BE15E9DB
:1054E2001598161A16F8150C1600000000641834E8
:1054F2001841110E182C181D180F18000000005129
:10550200141811411140110000A0410000003F0099
:1055120000C8420000C041CDCC04410000A041615E
:105522000F030F2F55736572732F6A6E66756C6C5D
:1055320065722F4465736B746F702F5452536D6193
:105542007274626F782D666F6E742F5452536D6150
:105552007274626F782D666F6E742E696E6F204161
:10556200756720323220323031372032333A3433C9
:105572003A343300202049444520000D0A002D2DE5
:105582002D2D2D2D2D2D2D2D2D2D2D2D2D2D00544F
:1055920068696E6B696E67526F61642E6F72670025
:1055A200536D617274626F78202020414C504841E3
:1055B2000054523A4D6573736167653A3A204D4122
:1055C2004E55414C202020202D204F4646202D2094
:1055D2004E41494C204E4F5420454E455247495A60
:1055E20045440054523A4D6573736167653A3A20F7
:1055F2004155544F4D41544943202D204F4E2020B8
:105602002D2048454154494E4720544F205345547C
:10561200504F494E5400536574706F696E74200088
:1056220050494442756D702000496E7075742000B7
:105632004F75747075742000706F7456616C756567
:105642002000636F6E74726F6C4D6F646520007220
:10565200656C61794F4E2000706F74536C6F70658A
:1056620056616C756520005468696E6B696E67528D
:105672006F61642E6F72672000536D617274626F86
:10568200782050726F0048656174657200436F69DB
:105692006C004F464600444F204E4F5420544F5505
:1056A200434820434F494C21005341464520544F23
:1056B20020544F55434820434F494C210041742008
:1056C200736574706F696E7421203A2900436F6F9D
:1056D2006C696E67202D205761697400486561749A
:1056E200696E67202D205761697400526561647983
:1056F20020746F2075736521203A29006E616E0057
:08570200696E66006F76660017
:107800000C94343C0C94513C0C94513C0C94513CE1
:107810000C94513C0C94513C0C94513C0C94513CB4
:107820000C94513C0C94513C0C94513C0C94513CA4
:107830000C94513C0C94513C0C94513C0C94513C94
:107840000C94513C0C94513C0C94513C0C94513C84
:107850000C94513C0C94513C0C94513C0C94513C74
:107860000C94513C0C94513C11241FBECFEFD8E036
:10787000DEBFCDBF11E0A0E0B1E0ECE9FFE702C060
:1078800005900D92A230B107D9F712E0A2E0B1E065
:1078900001C01D92AD30B107E1F70E942D3D0C945F
:1078A000CC3F0C94003C982F959595959595959582
:1078B000905D8F708A307CF0282F295A8091C0000B
:1078C00085FFFCCF9093C6008091C00085FFFCCF60
:1078D0002093C6000895282F205DF0CF982F809127
:1078E000C00085FFFCCF9093C6000895EF92FF92F1
:1078F0000F931F93EE24FF2487018091C00087FD22
:1079000017C00894E11CF11C011D111D81E4E8164B
:1079100082E4F8068FE0080780E0180770F3E09132
:107920000401F091050109958091C00087FFE9CF1E
:107930008091C6001F910F91FF90EF9008950E94D3
:10794000763C982F8091C00085FFFCCF9093C600B5
:1079500091362CF490330CF09053892F089597555D
:10796000892F08951F930E949F3C182F0E949F3CCF
:107970001295107F810F1F9108951F93182F882350
:1079800021F00E94763C1150E1F71F9108951F935A
:10799000182F0E94763C803249F0809103018F5F5E
:1079A000809303018530C1F01F9108958091C0003C
:1079B00085FFFCCF84E18093C6008091C00085FFE5
:1079C000FCCF1093C6008091C00085FFFCCF80E102
:1079D0008093C6001F910895E0910401F091050184
:1079E00009951F9108950E94763C803241F0809164
:1079F00003018F5F80930301853081F008958091AA
:107A0000C00085FFFCCF84E18093C6008091C00058
:107A100085FFFCCF80E18093C6000895E0910401CA
:107A2000F09105010995089540E951E08823A1F0FE
:107A30002D9A28EE33E0FA013197F1F721503040CA
:107A4000D1F72D9828EE33E0FA013197F1F7215064
:107A50003040D1F7815061F708953F924F925F9285
:107A60006F927F928F929F92AF92BF92CF92DF924E
:107A7000EF92FF920F931F93CF93DF93000080E16B
:107A80008093C4001092C50088E18093C10086E015
:107A90008093C2005098589A259A81E00E94143D24
:107AA00024E1F22E9EE1E92E85E9D82E0FE0C02ECA
:107AB00010E1B12EAA24A394B1E49B2EA6E58A2E50
:107AC000F2E57F2EE0E26E2E79E4572E63E5462E36
:107AD00050E5352E0E94763C8033B1F18133B9F107
:107AE000803409F46FC0813409F476C0823409F41B
:107AF00085C0853409F488C0803531F1823521F1A3
:107B0000813511F1853509F485C0863509F48DC0BC
:107B1000843609F496C0843709F403C1853709F423
:107B200072C1863709F466C0809103018F5F80932C
:107B30000301853079F6E0910401F0910501099582
:107B40000E94763C803351F60E94F33CC3CF0E94E2
:107B5000763C803249F78091C00085FFFCCFF092DF
:107B6000C6008091C00085FFFCCF9092C600809136
:107B7000C00085FFFCCF8092C6008091C00085FFC9
:107B8000FCCF7092C6008091C00085FFFCCF609250
:107B9000C6008091C00085FFFCCF5092C600809146
:107BA000C00085FFFCCF4092C6008091C00085FFD9
:107BB000FCCF3092C6008091C00085FFFCCFB09210
:107BC000C60088CF0E94763C863808F4BDCF0E945C
